{
  "contractName": "LightClient",
  "abi": [
    {
      "inputs": [
        {
          "internalType": "bytes",
          "name": "",
          "type": "bytes"
        },
        {
          "internalType": "bytes",
          "name": "",
          "type": "bytes"
        }
      ],
      "name": "update",
      "outputs": [],
      "stateMutability": "nonpayable",
      "type": "function"
    },
    {
      "inputs": [
        {
          "internalType": "bytes",
          "name": "",
          "type": "bytes"
        },
        {
          "internalType": "bytes",
          "name": "",
          "type": "bytes"
        },
        {
          "internalType": "bytes",
          "name": "",
          "type": "bytes"
        }
      ],
      "name": "verify",
      "outputs": [
        {
          "internalType": "bool",
          "name": "",
          "type": "bool"
        }
      ],
      "stateMutability": "view",
      "type": "function",
      "constant": true
    },
    {
      "inputs": [
        {
          "internalType": "bytes",
          "name": "",
          "type": "bytes"
        },
        {
          "internalType": "bytes[]",
          "name": "",
          "type": "bytes[]"
        }
      ],
      "name": "verifyBatch",
      "outputs": [
        {
          "internalType": "bool",
          "name": "",
          "type": "bool"
        }
      ],
      "stateMutability": "view",
      "type": "function",
      "constant": true
    }
  ],
  "bytecode": "0x608060405234801561001057600080fd5b5061039a806100206000396000f3fe608060405234801561001057600080fd5b50600436106100415760003560e01c80633f37dce214610046578063c4f6c24214610067578063de8f50a11461008e575b600080fd5b610065610054366004610191565b50506000805460ff19166001179055565b005b61007a6100753660046101f5565b6100a1565b604051901515815260200160405180910390f35b61007a61009c3660046102dc565b6100bd565b6000805460ff16806100b6575060005460ff16155b9392505050565b6000805460ff16806100d2575060005460ff16155b949350505050565b634e487b7160e01b600052604160045260246000fd5b604051601f8201601f1916810167ffffffffffffffff81118282101715610119576101196100da565b604052919050565b600082601f83011261013257600080fd5b813567ffffffffffffffff81111561014c5761014c6100da565b61015f601f8201601f19166020016100f0565b81815284602083860101111561017457600080fd5b816020850160208301376000918101602001919091529392505050565b600080604083850312156101a457600080fd5b823567ffffffffffffffff808211156101bc57600080fd5b6101c886838701610121565b935060208501359150808211156101de57600080fd5b506101eb85828601610121565b9150509250929050565b6000806040838503121561020857600080fd5b823567ffffffffffffffff8082111561022057600080fd5b61022c86838701610121565b935060209150818501358181111561024357600080fd5b8501601f8101871361025457600080fd5b803582811115610266576102666100da565b8060051b6102758582016100f0565b918252828101850191858101908a84111561028f57600080fd5b86850192505b838310156102cb578235868111156102ad5760008081fd5b6102bb8c8983890101610121565b8352509186019190860190610295565b809750505050505050509250929050565b6000806000606084860312156102f157600080fd5b833567ffffffffffffffff8082111561030957600080fd5b61031587838801610121565b9450602086013591508082111561032b57600080fd5b61033787838801610121565b9350604086013591508082111561034d57600080fd5b5061035a86828701610121565b915050925092509256fea2646970667358221220368f82bfb02aceca92cdca11bf31a2dff521ac23ee919f1ccbab985dc50db50364736f6c63430008130033",
  "immutableReferences": {},
  "source": "// SPDX-License-Identifier: MIT\npragma solidity >=0.4.22 <0.9.0;\n\nimport \"./ILightClient.sol\";\n\ncontract LightClient is ILightClient {\n    struct lightClientState {\n        bool notImplemented;\n    }\n\n    lightClientState private LCS;\n\n    function update(\n        bytes memory /* currBlockHeader */,\n        bytes memory /* prevBlockHeader */\n    ) public override {\n        LCS.notImplemented = true;\n    }\n\n    function verify(\n        bytes memory /* proof */,\n        bytes memory /* currBlockHeader */,\n        bytes memory /* prevBlockHeader */\n    ) public view override returns(bool) {\n        // Read LCS to prevent compiler telling us to change view -> pure\n        // Dummy implementation always returns true\n        return LCS.notImplemented || !LCS.notImplemented;\n    }\n\n    function verifyBatch(\n        bytes memory /* proof */,\n        bytes[] memory /* headers */\n    ) public view override returns(bool) {\n        // Read LCS to prevent compiler telling us to change view -> pure\n        // Dummy implementation always returns true\n        return LCS.notImplemented || !LCS.notImplemented;\n    }\n}\n",
  "sourcePath": "/Users/ethanchang/Crypto/zkp-project/contracts/LightClient.sol",
  "compiler": {
    "name": "solc",
    "version": "0.8.19+commit.7dd6d404.Emscripten.clang"
  },
  "schemaVersion": "3.4.13",
  "updatedAt": "2023-04-23T09:32:51.315Z",
  "networkType": "ethereum",
  "devdoc": {
    "kind": "dev",
    "methods": {},
    "version": 1
  },
  "userdoc": {
    "kind": "user",
    "methods": {},
    "version": 1
  }
}