{
  "contractName": "UpdaterContract",
  "abi": [
    {
      "inputs": [
        {
          "internalType": "address",
          "name": "_lightClientAddress",
          "type": "address"
        }
      ],
      "stateMutability": "nonpayable",
      "type": "constructor"
    },
    {
      "anonymous": false,
      "inputs": [
        {
          "indexed": false,
          "internalType": "string",
          "name": "message",
          "type": "string"
        }
      ],
      "name": "LogMe",
      "type": "event"
    },
    {
      "inputs": [
        {
          "internalType": "bytes",
          "name": "proof",
          "type": "bytes"
        },
        {
          "internalType": "bytes",
          "name": "currBlockHeader",
          "type": "bytes"
        },
        {
          "internalType": "bytes",
          "name": "prevBlockHeader",
          "type": "bytes"
        }
      ],
      "name": "headerUpdate",
      "outputs": [
        {
          "internalType": "bool",
          "name": "",
          "type": "bool"
        }
      ],
      "stateMutability": "nonpayable",
      "type": "function"
    },
    {
      "inputs": [
        {
          "internalType": "bytes",
          "name": "proof",
          "type": "bytes"
        },
        {
          "internalType": "bytes[]",
          "name": "headers",
          "type": "bytes[]"
        }
      ],
      "name": "batchedHeaderUpdate",
      "outputs": [
        {
          "internalType": "bool",
          "name": "",
          "type": "bool"
        }
      ],
      "stateMutability": "nonpayable",
      "type": "function"
    },
    {
      "inputs": [
        {
          "internalType": "uint256",
          "name": "blockNumber",
          "type": "uint256"
        }
      ],
      "name": "getBlockHeader",
      "outputs": [
        {
          "internalType": "bool",
          "name": "success",
          "type": "bool"
        },
        {
          "internalType": "bytes",
          "name": "blockHeader",
          "type": "bytes"
        },
        {
          "components": [
            {
              "internalType": "bool",
              "name": "notImplemented",
              "type": "bool"
            }
          ],
          "internalType": "struct LightClient.lightClientState",
          "name": "_LCS",
          "type": "tuple"
        }
      ],
      "stateMutability": "view",
      "type": "function",
      "constant": true
    },
    {
      "inputs": [
        {
          "internalType": "bytes",
          "name": "blockHeader",
          "type": "bytes"
        }
      ],
      "name": "getBlockHeaderFields",
      "outputs": [
        {
          "internalType": "bytes32",
          "name": "prevBlockHash",
          "type": "bytes32"
        },
        {
          "internalType": "uint256",
          "name": "blockNumber",
          "type": "uint256"
        }
      ],
      "stateMutability": "pure",
      "type": "function",
      "constant": true
    },
    {
      "inputs": [
        {
          "internalType": "bytes",
          "name": "blockHeader",
          "type": "bytes"
        }
      ],
      "name": "getBlockHeaderHash",
      "outputs": [
        {
          "internalType": "bytes32",
          "name": "",
          "type": "bytes32"
        }
      ],
      "stateMutability": "pure",
      "type": "function",
      "constant": true
    }
  ],
  "bytecode": "0x60806040526004805460ff1916600117905534801561001d57600080fd5b50604051610dea380380610dea83398101604081905261003c91610061565b600080546001600160a01b0319166001600160a01b0392909216919091179055610091565b60006020828403121561007357600080fd5b81516001600160a01b038116811461008a57600080fd5b9392505050565b610d4a806100a06000396000f3fe608060405234801561001057600080fd5b50600436106100575760003560e01c80632d142a991461005c5780635530a3a71461008757806361b86acf146100aa578063aa921a65146100d1578063dfd7d324146100e4575b600080fd5b61006f61006a36600461077e565b610117565b60405161007e939291906107dd565b60405180910390f35b61009a6100953660046108c2565b6101f1565b604051901515815260200161007e565b6100c36100b83660046109a9565b805160209091012090565b60405190815260200161007e565b61009a6100df3660046109e6565b61052f565b6101026100f23660046109a9565b60208101516101f4909101519091565b6040805192835260208301919091520161007e565b6040805160208101909152600080825290606090600084815260036020526040902080546002909101805460ff90921694509061015390610a6e565b80601f016020809104026020016040519081016040528092919081815260200182805461017f90610a6e565b80156101cc5780601f106101a1576101008083540402835291602001916101cc565b820191906000526020600020905b8154815290600101906020018083116101af57829003601f168201915b5050604080516020810190915260015460ff1615158152969893975092945050505050565b60008061021d8360008151811061020a5761020a610aa8565b6020026020010151805160209091012090565b60008181526002602081815260408084208151606081018352815460ff16151581526001820154938101939093529283018054959650939491939084019161026490610a6e565b80601f016020809104026020016040519081016040528092919081815260200182805461029090610a6e565b80156102dd5780601f106102b2576101008083540402835291602001916102dd565b820191906000526020600020905b8154815290600101906020018083116102c057829003601f168201915b505050505081525050905080600001516103115760045460ff1661030657600092505050610529565b6004805460ff191690555b60005460405163627b612160e11b81526001600160a01b039091169063c4f6c242906103439088908890600401610abe565b602060405180830381865afa158015610360573d6000803e3d6000fd5b505050506040513d601f19601f820116820180604052508101906103849190610b30565b61039357600092505050610529565b60015b84518110156105215760006103b686838151811061020a5761020a610aa8565b90506000806103e88885815181106103d0576103d0610aa8565b602002602001015160208101516101f4909101519091565b60008581526002602090815260408083208054600160ff199182168117835591820187905585855260039093529220805490911690911790558951919350915088908590811061043a5761043a610aa8565b60200260200101516003600083815260200190815260200160002060020190816104649190610ba1565b5060005488516001600160a01b0390911690633f37dce2908a908790811061048e5761048e610aa8565b60200260200101518a6001886104a49190610c77565b815181106104b4576104b4610aa8565b60200260200101516040518363ffffffff1660e01b81526004016104d9929190610c8a565b600060405180830381600087803b1580156104f357600080fd5b505af1158015610507573d6000803e3d6000fd5b50505050505050808061051990610cb8565b915050610396565b506001925050505b92915050565b80516020808301919091206000818152600280845260408083208151606081018352815460ff16151581526001820154968101969096529182018054939586949093928401919061057f90610a6e565b80601f01602080910402602001604051908101604052809291908181526020018280546105ab90610a6e565b80156105f85780601f106105cd576101008083540402835291602001916105f8565b820191906000526020600020905b8154815290600101906020018083116105db57829003601f168201915b5050505050815250509050806000015161062c5760045460ff1661062157600092505050610777565b6004805460ff191690555b60005460405163de8f50a160e01b81526001600160a01b039091169063de8f50a19061066090899089908990600401610cd1565b602060405180830381865afa15801561067d573d6000803e3d6000fd5b505050506040513d601f19601f820116820180604052508101906106a19190610b30565b6106b057600092505050610777565b8451602080870191822091516101f48801516000848152600280855260408083208054600160ff1991821681178355918201879055858552600390975292208054909516909117845591929091016107088982610ba1565b50600054604051631f9bee7160e11b81526001600160a01b0390911690633f37dce29061073b908b908b90600401610c8a565b600060405180830381600087803b15801561075557600080fd5b505af1158015610769573d6000803e3d6000fd5b505050506001955050505050505b9392505050565b60006020828403121561079057600080fd5b5035919050565b6000815180845260005b818110156107bd576020818501810151868301820152016107a1565b506000602082860101526020601f19601f83011685010191505092915050565b83151581526060602082015260006107f86060830185610797565b9050825115156040830152949350505050565b634e487b7160e01b600052604160045260246000fd5b604051601f8201601f1916810167ffffffffffffffff8111828210171561084a5761084a61080b565b604052919050565b600082601f83011261086357600080fd5b813567ffffffffffffffff81111561087d5761087d61080b565b610890601f8201601f1916602001610821565b8181528460208386010111156108a557600080fd5b816020850160208301376000918101602001919091529392505050565b600080604083850312156108d557600080fd5b823567ffffffffffffffff808211156108ed57600080fd5b6108f986838701610852565b935060209150818501358181111561091057600080fd5b8501601f8101871361092157600080fd5b8035828111156109335761093361080b565b8060051b610942858201610821565b918252828101850191858101908a84111561095c57600080fd5b86850192505b838310156109985782358681111561097a5760008081fd5b6109888c8983890101610852565b8352509186019190860190610962565b809750505050505050509250929050565b6000602082840312156109bb57600080fd5b813567ffffffffffffffff8111156109d257600080fd5b6109de84828501610852565b949350505050565b6000806000606084860312156109fb57600080fd5b833567ffffffffffffffff80821115610a1357600080fd5b610a1f87838801610852565b94506020860135915080821115610a3557600080fd5b610a4187838801610852565b93506040860135915080821115610a5757600080fd5b50610a6486828701610852565b9150509250925092565b600181811c90821680610a8257607f821691505b602082108103610aa257634e487b7160e01b600052602260045260246000fd5b50919050565b634e487b7160e01b600052603260045260246000fd5b604081526000610ad16040830185610797565b6020838203818501528185518084528284019150828160051b85010183880160005b83811015610b2157601f19878403018552610b0f838351610797565b94860194925090850190600101610af3565b50909998505050505050505050565b600060208284031215610b4257600080fd5b8151801515811461077757600080fd5b601f821115610b9c57600081815260208120601f850160051c81016020861015610b795750805b601f850160051c820191505b81811015610b9857828155600101610b85565b5050505b505050565b815167ffffffffffffffff811115610bbb57610bbb61080b565b610bcf81610bc98454610a6e565b84610b52565b602080601f831160018114610c045760008415610bec5750858301515b600019600386901b1c1916600185901b178555610b98565b600085815260208120601f198616915b82811015610c3357888601518255948401946001909101908401610c14565b5085821015610c515787850151600019600388901b60f8161c191681555b5050505050600190811b01905550565b634e487b7160e01b600052601160045260246000fd5b8181038181111561052957610529610c61565b604081526000610c9d6040830185610797565b8281036020840152610caf8185610797565b95945050505050565b600060018201610cca57610cca610c61565b5060010190565b606081526000610ce46060830186610797565b8281036020840152610cf68186610797565b90508281036040840152610d0a8185610797565b969550505050505056fea264697066735822122010d27f592cabe5cef8c0a5f745e47317ebc22e6ca341c71038fe00e2bf1f9ca364736f6c63430008130033",
  "immutableReferences": {},
  "source": "// SPDX-License-Identifier: MIT\npragma solidity >=0.4.22 <0.9.0;\n\nimport \"./LightClient.sol\";\n\ncontract UpdaterContract {\n    LightClient private lightClient;\n    LightClient.lightClientState LCS;\n\n    constructor(address _lightClientAddress) {\n        lightClient = LightClient(_lightClientAddress);\n    }\n\n    struct headerInfo {\n        bool exists;\n        bytes32 prevBlockHash;\n        bytes blockHeader;\n    }\n    mapping (bytes32 => headerInfo) headerDAG;\n    mapping (uint256 => headerInfo) numberToHeader;\n\n    bool headerDAGEmpty = true;\n\n    event LogMe(string message);\n\n    function headerUpdate(\n        bytes memory proof,\n        bytes memory currBlockHeader,\n        bytes memory prevBlockHeader\n    ) public returns(bool) {\n        // Check if parent exists\n        bytes32 prevHash = getBlockHeaderHash(prevBlockHeader);\n        headerInfo memory prevEntry = headerDAG[prevHash];\n        if (!prevEntry.exists) {\n            if (!headerDAGEmpty) {\n                return false;\n            }\n            headerDAGEmpty = false;\n        }\n\n        if (!lightClient.verify(proof, currBlockHeader,\n                                prevBlockHeader)) {\n            return false;\n        }\n\n        // Update state\n        bytes32 currHash = getBlockHeaderHash(currBlockHeader);\n        (bytes32 prevBlockHash, uint256 blockNumber) = getBlockHeaderFields(\n            currBlockHeader);\n        headerDAG[currHash].exists = true;\n        headerDAG[currHash].prevBlockHash = prevBlockHash;\n        numberToHeader[blockNumber].exists = true;\n        numberToHeader[blockNumber].blockHeader = currBlockHeader;\n\n        lightClient.update(currBlockHeader, prevBlockHeader);\n\n        return true;\n    }\n\n    function batchedHeaderUpdate(\n        bytes memory proof,\n        bytes[] memory headers\n    ) public returns(bool) {\n        // Check if first block exists\n        bytes32 prevHash = getBlockHeaderHash(headers[0]);\n        headerInfo memory prevEntry = headerDAG[prevHash];\n        if (!prevEntry.exists) {\n            if (!headerDAGEmpty) {\n                return false;\n            }\n            headerDAGEmpty = false;\n        }\n\n        if (!lightClient.verifyBatch(proof, headers)) {\n            return false;\n        }\n\n        // Update state\n        for (uint256 i = 1; i < headers.length; i++) {\n            bytes32 currHash = getBlockHeaderHash(headers[i]);\n            (bytes32 prevBlockHash, uint256 blockNumber) = getBlockHeaderFields(\n                headers[i]);\n            headerDAG[currHash].exists = true;\n            headerDAG[currHash].prevBlockHash = prevBlockHash;\n            numberToHeader[blockNumber].exists = true;\n            numberToHeader[blockNumber].blockHeader = headers[i];\n            lightClient.update(headers[i], headers[i - 1]);\n        }\n\n        return true;\n    }\n\n    function getBlockHeader(uint256 blockNumber) public view returns(\n        bool success,\n        bytes memory blockHeader,\n        LightClient.lightClientState memory _LCS\n    ) {\n        success = numberToHeader[blockNumber].exists;\n        blockHeader = numberToHeader[blockNumber].blockHeader;\n        _LCS = LCS;\n    }\n\n    function getBlockHeaderFields(\n        bytes memory blockHeader\n    ) public pure returns(\n        bytes32 prevBlockHash,\n        uint256 blockNumber\n    ) {\n        bytes32 blockNumberBytes;\n        // prevBlockHash is located at bytes 32 + [0:32] and blockNumber\n        // is located at 32 + [468:500] because we need to skip the first\n        // 32 bytes (reserved for the length of the byte string).\n        /* solium-disable-next-line */\n        assembly {\n            prevBlockHash := mload(add(blockHeader, 32))\n            blockNumberBytes := mload(add(blockHeader, 500))\n        }\n        blockNumber = uint256(blockNumberBytes);\n    }\n\n    function getBlockHeaderHash(\n        bytes memory blockHeader\n    ) public pure returns(bytes32) {\n        return keccak256(blockHeader);\n    }\n}\n",
  "sourcePath": "/Users/ethanchang/Crypto/zkp-project/contracts/UpdaterContract.sol",
  "compiler": {
    "name": "solc",
    "version": "0.8.19+commit.7dd6d404.Emscripten.clang"
  },
  "schemaVersion": "3.4.13",
  "updatedAt": "2023-04-23T09:32:51.320Z",
  "networkType": "ethereum",
  "devdoc": {
    "kind": "dev",
    "methods": {},
    "version": 1
  },
  "userdoc": {
    "kind": "user",
    "methods": {},
    "version": 1
  }
}